{
	"data": {
		"bytecode": {
			"linkReferences": {},
			"object": "608060405234801561001057600080fd5b50610235806100206000396000f3fe608060405234801561001057600080fd5b50600436106100415760003560e01c806343e4c7d1146100465780637292ea7814610066578063fc9c8d3914610097575b600080fd5b61004e6100b6565b60405161005d9392919061012e565b60405180910390f35b610080600480360381019061007b9190610196565b6100ee565b60405161008e9291906101d6565b60405180910390f35b61009f6100fe565b6040516100ad9291906101d6565b60405180910390f35b600080600080600080600290506100cb6100fe565b809350819450505080838092508194505050828282955095509550505050909192565b6000808383915091509250929050565b60008061010d600360066100ee565b915091509091565b6000819050919050565b61012881610115565b82525050565b6000606082019050610143600083018661011f565b610150602083018561011f565b61015d604083018461011f565b949350505050565b600080fd5b61017381610115565b811461017e57600080fd5b50565b6000813590506101908161016a565b92915050565b600080604083850312156101ad576101ac610165565b5b60006101bb85828601610181565b92505060206101cc85828601610181565b9150509250929050565b60006040820190506101eb600083018561011f565b6101f8602083018461011f565b939250505056fea2646970667358221220b4f645117199bf2da2237650a25144af48c5a8c6b4459478cb5d19990de4c08964736f6c634300080a0033",
			"opcodes": "PUSH1 0x80 PUSH1 0x40 MSTORE CALLVALUE DUP1 ISZERO PUSH2 0x10 JUMPI PUSH1 0x0 DUP1 REVERT JUMPDEST POP PUSH2 0x235 DUP1 PUSH2 0x20 PUSH1 0x0 CODECOPY PUSH1 0x0 RETURN INVALID PUSH1 0x80 PUSH1 0x40 MSTORE CALLVALUE DUP1 ISZERO PUSH2 0x10 JUMPI PUSH1 0x0 DUP1 REVERT JUMPDEST POP PUSH1 0x4 CALLDATASIZE LT PUSH2 0x41 JUMPI PUSH1 0x0 CALLDATALOAD PUSH1 0xE0 SHR DUP1 PUSH4 0x43E4C7D1 EQ PUSH2 0x46 JUMPI DUP1 PUSH4 0x7292EA78 EQ PUSH2 0x66 JUMPI DUP1 PUSH4 0xFC9C8D39 EQ PUSH2 0x97 JUMPI JUMPDEST PUSH1 0x0 DUP1 REVERT JUMPDEST PUSH2 0x4E PUSH2 0xB6 JUMP JUMPDEST PUSH1 0x40 MLOAD PUSH2 0x5D SWAP4 SWAP3 SWAP2 SWAP1 PUSH2 0x12E JUMP JUMPDEST PUSH1 0x40 MLOAD DUP1 SWAP2 SUB SWAP1 RETURN JUMPDEST PUSH2 0x80 PUSH1 0x4 DUP1 CALLDATASIZE SUB DUP2 ADD SWAP1 PUSH2 0x7B SWAP2 SWAP1 PUSH2 0x196 JUMP JUMPDEST PUSH2 0xEE JUMP JUMPDEST PUSH1 0x40 MLOAD PUSH2 0x8E SWAP3 SWAP2 SWAP1 PUSH2 0x1D6 JUMP JUMPDEST PUSH1 0x40 MLOAD DUP1 SWAP2 SUB SWAP1 RETURN JUMPDEST PUSH2 0x9F PUSH2 0xFE JUMP JUMPDEST PUSH1 0x40 MLOAD PUSH2 0xAD SWAP3 SWAP2 SWAP1 PUSH2 0x1D6 JUMP JUMPDEST PUSH1 0x40 MLOAD DUP1 SWAP2 SUB SWAP1 RETURN JUMPDEST PUSH1 0x0 DUP1 PUSH1 0x0 DUP1 PUSH1 0x0 DUP1 PUSH1 0x2 SWAP1 POP PUSH2 0xCB PUSH2 0xFE JUMP JUMPDEST DUP1 SWAP4 POP DUP2 SWAP5 POP POP POP DUP1 DUP4 DUP1 SWAP3 POP DUP2 SWAP5 POP POP POP DUP3 DUP3 DUP3 SWAP6 POP SWAP6 POP SWAP6 POP POP POP POP SWAP1 SWAP2 SWAP3 JUMP JUMPDEST PUSH1 0x0 DUP1 DUP4 DUP4 SWAP2 POP SWAP2 POP SWAP3 POP SWAP3 SWAP1 POP JUMP JUMPDEST PUSH1 0x0 DUP1 PUSH2 0x10D PUSH1 0x3 PUSH1 0x6 PUSH2 0xEE JUMP JUMPDEST SWAP2 POP SWAP2 POP SWAP1 SWAP2 JUMP JUMPDEST PUSH1 0x0 DUP2 SWAP1 POP SWAP2 SWAP1 POP JUMP JUMPDEST PUSH2 0x128 DUP2 PUSH2 0x115 JUMP JUMPDEST DUP3 MSTORE POP POP JUMP JUMPDEST PUSH1 0x0 PUSH1 0x60 DUP3 ADD SWAP1 POP PUSH2 0x143 PUSH1 0x0 DUP4 ADD DUP7 PUSH2 0x11F JUMP JUMPDEST PUSH2 0x150 PUSH1 0x20 DUP4 ADD DUP6 PUSH2 0x11F JUMP JUMPDEST PUSH2 0x15D PUSH1 0x40 DUP4 ADD DUP5 PUSH2 0x11F JUMP JUMPDEST SWAP5 SWAP4 POP POP POP POP JUMP JUMPDEST PUSH1 0x0 DUP1 REVERT JUMPDEST PUSH2 0x173 DUP2 PUSH2 0x115 JUMP JUMPDEST DUP2 EQ PUSH2 0x17E JUMPI PUSH1 0x0 DUP1 REVERT JUMPDEST POP JUMP JUMPDEST PUSH1 0x0 DUP2 CALLDATALOAD SWAP1 POP PUSH2 0x190 DUP2 PUSH2 0x16A JUMP JUMPDEST SWAP3 SWAP2 POP POP JUMP JUMPDEST PUSH1 0x0 DUP1 PUSH1 0x40 DUP4 DUP6 SUB SLT ISZERO PUSH2 0x1AD JUMPI PUSH2 0x1AC PUSH2 0x165 JUMP JUMPDEST JUMPDEST PUSH1 0x0 PUSH2 0x1BB DUP6 DUP3 DUP7 ADD PUSH2 0x181 JUMP JUMPDEST SWAP3 POP POP PUSH1 0x20 PUSH2 0x1CC DUP6 DUP3 DUP7 ADD PUSH2 0x181 JUMP JUMPDEST SWAP2 POP POP SWAP3 POP SWAP3 SWAP1 POP JUMP JUMPDEST PUSH1 0x0 PUSH1 0x40 DUP3 ADD SWAP1 POP PUSH2 0x1EB PUSH1 0x0 DUP4 ADD DUP6 PUSH2 0x11F JUMP JUMPDEST PUSH2 0x1F8 PUSH1 0x20 DUP4 ADD DUP5 PUSH2 0x11F JUMP JUMPDEST SWAP4 SWAP3 POP POP POP JUMP INVALID LOG2 PUSH5 0x6970667358 0x22 SLT KECCAK256 0xB4 0xF6 GASLIMIT GT PUSH18 0x99BF2DA2237650A25144AF48C5A8C6B44594 PUSH25 0xCB5D19990DE4C08964736F6C634300080A0033000000000000 "
		},
		"gasEstimates": {
			"creation": {
				"codeDepositCost": "113000",
				"executionCost": "159",
				"totalCost": "113159"
			},
			"external": {
				"caller()": "infinite",
				"callerAll()": "infinite",
				"returnValues(uint256,uint256)": "infinite"
			}
		},
		"methodIdentifiers": {
			"caller()": "fc9c8d39",
			"callerAll()": "43e4c7d1",
			"returnValues(uint256,uint256)": "7292ea78"
		}
	},
	"abi": [
		{
			"inputs": [],
			"name": "caller",
			"outputs": [
				{
					"internalType": "uint256",
					"name": "",
					"type": "uint256"
				},
				{
					"internalType": "uint256",
					"name": "",
					"type": "uint256"
				}
			],
			"stateMutability": "pure",
			"type": "function"
		},
		{
			"inputs": [],
			"name": "callerAll",
			"outputs": [
				{
					"internalType": "uint256",
					"name": "",
					"type": "uint256"
				},
				{
					"internalType": "uint256",
					"name": "",
					"type": "uint256"
				},
				{
					"internalType": "uint256",
					"name": "",
					"type": "uint256"
				}
			],
			"stateMutability": "pure",
			"type": "function"
		},
		{
			"inputs": [
				{
					"internalType": "uint256",
					"name": "a",
					"type": "uint256"
				},
				{
					"internalType": "uint256",
					"name": "b",
					"type": "uint256"
				}
			],
			"name": "returnValues",
			"outputs": [
				{
					"internalType": "uint256",
					"name": "",
					"type": "uint256"
				},
				{
					"internalType": "uint256",
					"name": "",
					"type": "uint256"
				}
			],
			"stateMutability": "pure",
			"type": "function"
		}
	]
}