{
	"data": {
		"bytecode": {
			"linkReferences": {},
			"object": "608060405234801561001057600080fd5b506101d5806100206000396000f3fe608060405234801561001057600080fd5b50600436106100415760003560e01c80634386cca51461004657806371ca2ecf14610050578063c3e2b5e61461005a575b600080fd5b61004e610064565b005b6100586100d2565b005b6100626100f2565b005b6000600290806001815401808255809150506001900390600052602060002001600090919091909150556000806000815481106100a4576100a3610141565b5b9060005260206000200154905060008054905090506004600080549050146100cf576100ce610170565b5b50565b6000600190506000600290508082146100ee576100ed610170565b5b5050565b60006040518060400160405280600481526020017f74657374000000000000000000000000000000000000000000000000000000008152509050600a81511461013e5761013d610170565b5b50565b7f4e487b7100000000000000000000000000000000000000000000000000000000600052603260045260246000fd5b7f4e487b7100000000000000000000000000000000000000000000000000000000600052600160045260246000fdfea2646970667358221220e6871029ea23e6241121302d468705435e3ed820bd8b0fb8863c987171bba36264736f6c634300080a0033",
			"opcodes": "PUSH1 0x80 PUSH1 0x40 MSTORE CALLVALUE DUP1 ISZERO PUSH2 0x10 JUMPI PUSH1 0x0 DUP1 REVERT JUMPDEST POP PUSH2 0x1D5 DUP1 PUSH2 0x20 PUSH1 0x0 CODECOPY PUSH1 0x0 RETURN INVALID PUSH1 0x80 PUSH1 0x40 MSTORE CALLVALUE DUP1 ISZERO PUSH2 0x10 JUMPI PUSH1 0x0 DUP1 REVERT JUMPDEST POP PUSH1 0x4 CALLDATASIZE LT PUSH2 0x41 JUMPI PUSH1 0x0 CALLDATALOAD PUSH1 0xE0 SHR DUP1 PUSH4 0x4386CCA5 EQ PUSH2 0x46 JUMPI DUP1 PUSH4 0x71CA2ECF EQ PUSH2 0x50 JUMPI DUP1 PUSH4 0xC3E2B5E6 EQ PUSH2 0x5A JUMPI JUMPDEST PUSH1 0x0 DUP1 REVERT JUMPDEST PUSH2 0x4E PUSH2 0x64 JUMP JUMPDEST STOP JUMPDEST PUSH2 0x58 PUSH2 0xD2 JUMP JUMPDEST STOP JUMPDEST PUSH2 0x62 PUSH2 0xF2 JUMP JUMPDEST STOP JUMPDEST PUSH1 0x0 PUSH1 0x2 SWAP1 DUP1 PUSH1 0x1 DUP2 SLOAD ADD DUP1 DUP3 SSTORE DUP1 SWAP2 POP POP PUSH1 0x1 SWAP1 SUB SWAP1 PUSH1 0x0 MSTORE PUSH1 0x20 PUSH1 0x0 KECCAK256 ADD PUSH1 0x0 SWAP1 SWAP2 SWAP1 SWAP2 SWAP1 SWAP2 POP SSTORE PUSH1 0x0 DUP1 PUSH1 0x0 DUP2 SLOAD DUP2 LT PUSH2 0xA4 JUMPI PUSH2 0xA3 PUSH2 0x141 JUMP JUMPDEST JUMPDEST SWAP1 PUSH1 0x0 MSTORE PUSH1 0x20 PUSH1 0x0 KECCAK256 ADD SLOAD SWAP1 POP PUSH1 0x0 DUP1 SLOAD SWAP1 POP SWAP1 POP PUSH1 0x4 PUSH1 0x0 DUP1 SLOAD SWAP1 POP EQ PUSH2 0xCF JUMPI PUSH2 0xCE PUSH2 0x170 JUMP JUMPDEST JUMPDEST POP JUMP JUMPDEST PUSH1 0x0 PUSH1 0x1 SWAP1 POP PUSH1 0x0 PUSH1 0x2 SWAP1 POP DUP1 DUP3 EQ PUSH2 0xEE JUMPI PUSH2 0xED PUSH2 0x170 JUMP JUMPDEST JUMPDEST POP POP JUMP JUMPDEST PUSH1 0x0 PUSH1 0x40 MLOAD DUP1 PUSH1 0x40 ADD PUSH1 0x40 MSTORE DUP1 PUSH1 0x4 DUP2 MSTORE PUSH1 0x20 ADD PUSH32 0x7465737400000000000000000000000000000000000000000000000000000000 DUP2 MSTORE POP SWAP1 POP PUSH1 0xA DUP2 MLOAD EQ PUSH2 0x13E JUMPI PUSH2 0x13D PUSH2 0x170 JUMP JUMPDEST JUMPDEST POP JUMP JUMPDEST PUSH32 0x4E487B7100000000000000000000000000000000000000000000000000000000 PUSH1 0x0 MSTORE PUSH1 0x32 PUSH1 0x4 MSTORE PUSH1 0x24 PUSH1 0x0 REVERT JUMPDEST PUSH32 0x4E487B7100000000000000000000000000000000000000000000000000000000 PUSH1 0x0 MSTORE PUSH1 0x1 PUSH1 0x4 MSTORE PUSH1 0x24 PUSH1 0x0 REVERT INVALID LOG2 PUSH5 0x6970667358 0x22 SLT KECCAK256 0xE6 DUP8 LT 0x29 0xEA 0x23 0xE6 0x24 GT 0x21 ADDRESS 0x2D CHAINID DUP8 SDIV NUMBER 0x5E RETURNDATACOPY 0xD8 KECCAK256 0xBD DUP12 0xF 0xB8 DUP7 EXTCODECOPY SWAP9 PUSH18 0x71BBA36264736F6C634300080A0033000000 "
		},
		"gasEstimates": {
			"creation": {
				"codeDepositCost": "93800",
				"executionCost": "141",
				"totalCost": "93941"
			},
			"external": {
				"assignment()": "218",
				"memoryAlloc()": "288",
				"storageAlloc()": "55112"
			}
		},
		"methodIdentifiers": {
			"assignment()": "71ca2ecf",
			"memoryAlloc()": "c3e2b5e6",
			"storageAlloc()": "4386cca5"
		}
	},
	"abi": [
		{
			"inputs": [],
			"name": "assignment",
			"outputs": [],
			"stateMutability": "pure",
			"type": "function"
		},
		{
			"inputs": [],
			"name": "memoryAlloc",
			"outputs": [],
			"stateMutability": "pure",
			"type": "function"
		},
		{
			"inputs": [],
			"name": "storageAlloc",
			"outputs": [],
			"stateMutability": "nonpayable",
			"type": "function"
		}
	]
}