{
	"data": {
		"bytecode": {
			"linkReferences": {},
			"object": "608060405234801561001057600080fd5b50610388806100206000396000f3fe608060405234801561001057600080fd5b506004361061004c5760003560e01c8063169524d3146100515780636d87ae2b14610081578063acec036b146100b1578063e225a043146100e1575b600080fd5b61006b60048036038101906100669190610202565b610111565b6040516100789190610251565b60405180910390f35b61009b6004803603810190610096919061026c565b61012e565b6040516100a89190610251565b60405180910390f35b6100cb60048036038101906100c6919061026c565b610140565b6040516100d89190610251565b60405180910390f35b6100fb60048036038101906100f69190610202565b610152565b6040516101089190610251565b60405180910390f35b6000610126828461016f90919063ffffffff16565b905092915050565b600061013982610185565b9050919050565b600061014b8261019b565b9050919050565b600061016782846101b190919063ffffffff16565b905092915050565b6000818361017d91906102c8565b905092915050565b600060018261019491906102fc565b9050919050565b60006001826101aa91906102c8565b9050919050565b600081836101bf91906102fc565b905092915050565b600080fd5b6000819050919050565b6101df816101cc565b81146101ea57600080fd5b50565b6000813590506101fc816101d6565b92915050565b60008060408385031215610219576102186101c7565b5b6000610227858286016101ed565b9250506020610238858286016101ed565b9150509250929050565b61024b816101cc565b82525050565b60006020820190506102666000830184610242565b92915050565b600060208284031215610282576102816101c7565b5b6000610290848285016101ed565b91505092915050565b7f4e487b7100000000000000000000000000000000000000000000000000000000600052601160045260246000fd5b60006102d3826101cc565b91506102de836101cc565b9250828210156102f1576102f0610299565b5b828203905092915050565b6000610307826101cc565b9150610312836101cc565b9250827fffffffffffffffffffffffffffffffffffffffffffffffffffffffffffffffff0382111561034757610346610299565b5b82820190509291505056fea264697066735822122050be0ff92e96c9ce6f5fd317c5a90da00449eaa0b853b70afb6088f11d2cfc3664736f6c634300080a0033",
			"opcodes": "PUSH1 0x80 PUSH1 0x40 MSTORE CALLVALUE DUP1 ISZERO PUSH2 0x10 JUMPI PUSH1 0x0 DUP1 REVERT JUMPDEST POP PUSH2 0x388 DUP1 PUSH2 0x20 PUSH1 0x0 CODECOPY PUSH1 0x0 RETURN INVALID PUSH1 0x80 PUSH1 0x40 MSTORE CALLVALUE DUP1 ISZERO PUSH2 0x10 JUMPI PUSH1 0x0 DUP1 REVERT JUMPDEST POP PUSH1 0x4 CALLDATASIZE LT PUSH2 0x4C JUMPI PUSH1 0x0 CALLDATALOAD PUSH1 0xE0 SHR DUP1 PUSH4 0x169524D3 EQ PUSH2 0x51 JUMPI DUP1 PUSH4 0x6D87AE2B EQ PUSH2 0x81 JUMPI DUP1 PUSH4 0xACEC036B EQ PUSH2 0xB1 JUMPI DUP1 PUSH4 0xE225A043 EQ PUSH2 0xE1 JUMPI JUMPDEST PUSH1 0x0 DUP1 REVERT JUMPDEST PUSH2 0x6B PUSH1 0x4 DUP1 CALLDATASIZE SUB DUP2 ADD SWAP1 PUSH2 0x66 SWAP2 SWAP1 PUSH2 0x202 JUMP JUMPDEST PUSH2 0x111 JUMP JUMPDEST PUSH1 0x40 MLOAD PUSH2 0x78 SWAP2 SWAP1 PUSH2 0x251 JUMP JUMPDEST PUSH1 0x40 MLOAD DUP1 SWAP2 SUB SWAP1 RETURN JUMPDEST PUSH2 0x9B PUSH1 0x4 DUP1 CALLDATASIZE SUB DUP2 ADD SWAP1 PUSH2 0x96 SWAP2 SWAP1 PUSH2 0x26C JUMP JUMPDEST PUSH2 0x12E JUMP JUMPDEST PUSH1 0x40 MLOAD PUSH2 0xA8 SWAP2 SWAP1 PUSH2 0x251 JUMP JUMPDEST PUSH1 0x40 MLOAD DUP1 SWAP2 SUB SWAP1 RETURN JUMPDEST PUSH2 0xCB PUSH1 0x4 DUP1 CALLDATASIZE SUB DUP2 ADD SWAP1 PUSH2 0xC6 SWAP2 SWAP1 PUSH2 0x26C JUMP JUMPDEST PUSH2 0x140 JUMP JUMPDEST PUSH1 0x40 MLOAD PUSH2 0xD8 SWAP2 SWAP1 PUSH2 0x251 JUMP JUMPDEST PUSH1 0x40 MLOAD DUP1 SWAP2 SUB SWAP1 RETURN JUMPDEST PUSH2 0xFB PUSH1 0x4 DUP1 CALLDATASIZE SUB DUP2 ADD SWAP1 PUSH2 0xF6 SWAP2 SWAP1 PUSH2 0x202 JUMP JUMPDEST PUSH2 0x152 JUMP JUMPDEST PUSH1 0x40 MLOAD PUSH2 0x108 SWAP2 SWAP1 PUSH2 0x251 JUMP JUMPDEST PUSH1 0x40 MLOAD DUP1 SWAP2 SUB SWAP1 RETURN JUMPDEST PUSH1 0x0 PUSH2 0x126 DUP3 DUP5 PUSH2 0x16F SWAP1 SWAP2 SWAP1 PUSH4 0xFFFFFFFF AND JUMP JUMPDEST SWAP1 POP SWAP3 SWAP2 POP POP JUMP JUMPDEST PUSH1 0x0 PUSH2 0x139 DUP3 PUSH2 0x185 JUMP JUMPDEST SWAP1 POP SWAP2 SWAP1 POP JUMP JUMPDEST PUSH1 0x0 PUSH2 0x14B DUP3 PUSH2 0x19B JUMP JUMPDEST SWAP1 POP SWAP2 SWAP1 POP JUMP JUMPDEST PUSH1 0x0 PUSH2 0x167 DUP3 DUP5 PUSH2 0x1B1 SWAP1 SWAP2 SWAP1 PUSH4 0xFFFFFFFF AND JUMP JUMPDEST SWAP1 POP SWAP3 SWAP2 POP POP JUMP JUMPDEST PUSH1 0x0 DUP2 DUP4 PUSH2 0x17D SWAP2 SWAP1 PUSH2 0x2C8 JUMP JUMPDEST SWAP1 POP SWAP3 SWAP2 POP POP JUMP JUMPDEST PUSH1 0x0 PUSH1 0x1 DUP3 PUSH2 0x194 SWAP2 SWAP1 PUSH2 0x2FC JUMP JUMPDEST SWAP1 POP SWAP2 SWAP1 POP JUMP JUMPDEST PUSH1 0x0 PUSH1 0x1 DUP3 PUSH2 0x1AA SWAP2 SWAP1 PUSH2 0x2C8 JUMP JUMPDEST SWAP1 POP SWAP2 SWAP1 POP JUMP JUMPDEST PUSH1 0x0 DUP2 DUP4 PUSH2 0x1BF SWAP2 SWAP1 PUSH2 0x2FC JUMP JUMPDEST SWAP1 POP SWAP3 SWAP2 POP POP JUMP JUMPDEST PUSH1 0x0 DUP1 REVERT JUMPDEST PUSH1 0x0 DUP2 SWAP1 POP SWAP2 SWAP1 POP JUMP JUMPDEST PUSH2 0x1DF DUP2 PUSH2 0x1CC JUMP JUMPDEST DUP2 EQ PUSH2 0x1EA JUMPI PUSH1 0x0 DUP1 REVERT JUMPDEST POP JUMP JUMPDEST PUSH1 0x0 DUP2 CALLDATALOAD SWAP1 POP PUSH2 0x1FC DUP2 PUSH2 0x1D6 JUMP JUMPDEST SWAP3 SWAP2 POP POP JUMP JUMPDEST PUSH1 0x0 DUP1 PUSH1 0x40 DUP4 DUP6 SUB SLT ISZERO PUSH2 0x219 JUMPI PUSH2 0x218 PUSH2 0x1C7 JUMP JUMPDEST JUMPDEST PUSH1 0x0 PUSH2 0x227 DUP6 DUP3 DUP7 ADD PUSH2 0x1ED JUMP JUMPDEST SWAP3 POP POP PUSH1 0x20 PUSH2 0x238 DUP6 DUP3 DUP7 ADD PUSH2 0x1ED JUMP JUMPDEST SWAP2 POP POP SWAP3 POP SWAP3 SWAP1 POP JUMP JUMPDEST PUSH2 0x24B DUP2 PUSH2 0x1CC JUMP JUMPDEST DUP3 MSTORE POP POP JUMP JUMPDEST PUSH1 0x0 PUSH1 0x20 DUP3 ADD SWAP1 POP PUSH2 0x266 PUSH1 0x0 DUP4 ADD DUP5 PUSH2 0x242 JUMP JUMPDEST SWAP3 SWAP2 POP POP JUMP JUMPDEST PUSH1 0x0 PUSH1 0x20 DUP3 DUP5 SUB SLT ISZERO PUSH2 0x282 JUMPI PUSH2 0x281 PUSH2 0x1C7 JUMP JUMPDEST JUMPDEST PUSH1 0x0 PUSH2 0x290 DUP5 DUP3 DUP6 ADD PUSH2 0x1ED JUMP JUMPDEST SWAP2 POP POP SWAP3 SWAP2 POP POP JUMP JUMPDEST PUSH32 0x4E487B7100000000000000000000000000000000000000000000000000000000 PUSH1 0x0 MSTORE PUSH1 0x11 PUSH1 0x4 MSTORE PUSH1 0x24 PUSH1 0x0 REVERT JUMPDEST PUSH1 0x0 PUSH2 0x2D3 DUP3 PUSH2 0x1CC JUMP JUMPDEST SWAP2 POP PUSH2 0x2DE DUP4 PUSH2 0x1CC JUMP JUMPDEST SWAP3 POP DUP3 DUP3 LT ISZERO PUSH2 0x2F1 JUMPI PUSH2 0x2F0 PUSH2 0x299 JUMP JUMPDEST JUMPDEST DUP3 DUP3 SUB SWAP1 POP SWAP3 SWAP2 POP POP JUMP JUMPDEST PUSH1 0x0 PUSH2 0x307 DUP3 PUSH2 0x1CC JUMP JUMPDEST SWAP2 POP PUSH2 0x312 DUP4 PUSH2 0x1CC JUMP JUMPDEST SWAP3 POP DUP3 PUSH32 0xFFFFFFFFFFFFFFFFFFFFFFFFFFFFFFFFFFFFFFFFFFFFFFFFFFFFFFFFFFFFFFFF SUB DUP3 GT ISZERO PUSH2 0x347 JUMPI PUSH2 0x346 PUSH2 0x299 JUMP JUMPDEST JUMPDEST DUP3 DUP3 ADD SWAP1 POP SWAP3 SWAP2 POP POP JUMP INVALID LOG2 PUSH5 0x6970667358 0x22 SLT KECCAK256 POP 0xBE 0xF 0xF9 0x2E SWAP7 0xC9 0xCE PUSH16 0x5FD317C5A90DA00449EAA0B853B70AFB PUSH1 0x88 CALL SAR 0x2C 0xFC CALLDATASIZE PUSH5 0x736F6C6343 STOP ADDMOD EXP STOP CALLER "
		},
		"gasEstimates": {
			"creation": {
				"codeDepositCost": "180800",
				"executionCost": "226",
				"totalCost": "181026"
			},
			"external": {
				"testDecrement(uint256)": "infinite",
				"testDecrementByValue(uint256,uint256)": "infinite",
				"testIncrement(uint256)": "infinite",
				"testIncrementByValue(uint256,uint256)": "infinite"
			}
		},
		"methodIdentifiers": {
			"testDecrement(uint256)": "acec036b",
			"testDecrementByValue(uint256,uint256)": "169524d3",
			"testIncrement(uint256)": "6d87ae2b",
			"testIncrementByValue(uint256,uint256)": "e225a043"
		}
	},
	"abi": [
		{
			"inputs": [
				{
					"internalType": "uint256",
					"name": "_self",
					"type": "uint256"
				}
			],
			"name": "testDecrement",
			"outputs": [
				{
					"internalType": "uint256",
					"name": "",
					"type": "uint256"
				}
			],
			"stateMutability": "pure",
			"type": "function"
		},
		{
			"inputs": [
				{
					"internalType": "uint256",
					"name": "_self",
					"type": "uint256"
				},
				{
					"internalType": "uint256",
					"name": "_value",
					"type": "uint256"
				}
			],
			"name": "testDecrementByValue",
			"outputs": [
				{
					"internalType": "uint256",
					"name": "",
					"type": "uint256"
				}
			],
			"stateMutability": "pure",
			"type": "function"
		},
		{
			"inputs": [
				{
					"internalType": "uint256",
					"name": "_self",
					"type": "uint256"
				}
			],
			"name": "testIncrement",
			"outputs": [
				{
					"internalType": "uint256",
					"name": "",
					"type": "uint256"
				}
			],
			"stateMutability": "pure",
			"type": "function"
		},
		{
			"inputs": [
				{
					"internalType": "uint256",
					"name": "_self",
					"type": "uint256"
				},
				{
					"internalType": "uint256",
					"name": "_value",
					"type": "uint256"
				}
			],
			"name": "testIncrementByValue",
			"outputs": [
				{
					"internalType": "uint256",
					"name": "",
					"type": "uint256"
				}
			],
			"stateMutability": "pure",
			"type": "function"
		}
	]
}