{
	"data": {
		"bytecode": {
			"linkReferences": {},
			"object": "608060405234801561001057600080fd5b506107c0806100206000396000f3fe608060405234801561001057600080fd5b50600436106100365760003560e01c806330e738a71461003b5780633c459f881461006b575b600080fd5b6100556004803603810190610050919061052d565b61009b565b604051610062919061058f565b60405180910390f35b6100856004803603810190610080919061052d565b6100ec565b6040516100929190610632565b60405180910390f35b60006100e56040518060400160405280600181526020017f74000000000000000000000000000000000000000000000000000000000000008152508361013d90919063ffffffff16565b9050919050565b60606101366040518060400160405280600581526020017f5f746573740000000000000000000000000000000000000000000000000000008152508361023890919063ffffffff16565b9050919050565b6000808390506000839050600181511461015a57610159610654565b5b60005b825181101561020b578160008151811061017a57610179610683565b5b602001015160f81c60f81b7effffffffffffffffffffffffffffffffffffffffffffffffffffffffffffff19168382815181106101ba576101b9610683565b5b602001015160f81c60f81b7effffffffffffffffffffffffffffffffffffffffffffffffffffffffffffff191614156101f857809350505050610232565b8080610203906106eb565b91505061015d565b507fffffffffffffffffffffffffffffffffffffffffffffffffffffffffffffffff925050505b92915050565b6060600083905060008390506000815183516102549190610734565b67ffffffffffffffff81111561026d5761026c610402565b5b6040519080825280601f01601f19166020018201604052801561029f5781602001600182028036833780820191505090505b5090506000819050600080600091505b8551821015610337578582815181106102cb576102ca610683565b5b602001015160f81c60f81b8382806102e2906106eb565b9350815181106102f5576102f4610683565b5b60200101907effffffffffffffffffffffffffffffffffffffffffffffffffffffffffffff1916908160001a905350818061032f906106eb565b9250506102af565b600091505b85518210156103c45784828151811061035857610357610683565b5b602001015160f81c60f81b83828061036f906106eb565b93508151811061038257610381610683565b5b60200101907effffffffffffffffffffffffffffffffffffffffffffffffffffffffffffff1916908160001a90535081806103bc906106eb565b92505061033c565b82965050505050505092915050565b6000604051905090565b600080fd5b600080fd5b600080fd5b600080fd5b6000601f19601f8301169050919050565b7f4e487b7100000000000000000000000000000000000000000000000000000000600052604160045260246000fd5b61043a826103f1565b810181811067ffffffffffffffff8211171561045957610458610402565b5b80604052505050565b600061046c6103d3565b90506104788282610431565b919050565b600067ffffffffffffffff82111561049857610497610402565b5b6104a1826103f1565b9050602081019050919050565b82818337600083830152505050565b60006104d06104cb8461047d565b610462565b9050828152602081018484840111156104ec576104eb6103ec565b5b6104f78482856104ae565b509392505050565b600082601f830112610514576105136103e7565b5b81356105248482602086016104bd565b91505092915050565b600060208284031215610543576105426103dd565b5b600082013567ffffffffffffffff811115610561576105606103e2565b5b61056d848285016104ff565b91505092915050565b6000819050919050565b61058981610576565b82525050565b60006020820190506105a46000830184610580565b92915050565b600081519050919050565b600082825260208201905092915050565b60005b838110156105e45780820151818401526020810190506105c9565b838111156105f3576000848401525b50505050565b6000610604826105aa565b61060e81856105b5565b935061061e8185602086016105c6565b610627816103f1565b840191505092915050565b6000602082019050818103600083015261064c81846105f9565b905092915050565b7f4e487b7100000000000000000000000000000000000000000000000000000000600052600160045260246000fd5b7f4e487b7100000000000000000000000000000000000000000000000000000000600052603260045260246000fd5b7f4e487b7100000000000000000000000000000000000000000000000000000000600052601160045260246000fd5b6000819050919050565b60006106f6826106e1565b91507fffffffffffffffffffffffffffffffffffffffffffffffffffffffffffffffff821415610729576107286106b2565b5b600182019050919050565b600061073f826106e1565b915061074a836106e1565b9250827fffffffffffffffffffffffffffffffffffffffffffffffffffffffffffffffff0382111561077f5761077e6106b2565b5b82820190509291505056fea264697066735822122047beeeccee072483a632c460f30691af21ed3b68160a646e3d1393aaa74f3f9b64736f6c634300080a0033",
			"opcodes": "PUSH1 0x80 PUSH1 0x40 MSTORE CALLVALUE DUP1 ISZERO PUSH2 0x10 JUMPI PUSH1 0x0 DUP1 REVERT JUMPDEST POP PUSH2 0x7C0 DUP1 PUSH2 0x20 PUSH1 0x0 CODECOPY PUSH1 0x0 RETURN INVALID PUSH1 0x80 PUSH1 0x40 MSTORE CALLVALUE DUP1 ISZERO PUSH2 0x10 JUMPI PUSH1 0x0 DUP1 REVERT JUMPDEST POP PUSH1 0x4 CALLDATASIZE LT PUSH2 0x36 JUMPI PUSH1 0x0 CALLDATALOAD PUSH1 0xE0 SHR DUP1 PUSH4 0x30E738A7 EQ PUSH2 0x3B JUMPI DUP1 PUSH4 0x3C459F88 EQ PUSH2 0x6B JUMPI JUMPDEST PUSH1 0x0 DUP1 REVERT JUMPDEST PUSH2 0x55 PUSH1 0x4 DUP1 CALLDATASIZE SUB DUP2 ADD SWAP1 PUSH2 0x50 SWAP2 SWAP1 PUSH2 0x52D JUMP JUMPDEST PUSH2 0x9B JUMP JUMPDEST PUSH1 0x40 MLOAD PUSH2 0x62 SWAP2 SWAP1 PUSH2 0x58F JUMP JUMPDEST PUSH1 0x40 MLOAD DUP1 SWAP2 SUB SWAP1 RETURN JUMPDEST PUSH2 0x85 PUSH1 0x4 DUP1 CALLDATASIZE SUB DUP2 ADD SWAP1 PUSH2 0x80 SWAP2 SWAP1 PUSH2 0x52D JUMP JUMPDEST PUSH2 0xEC JUMP JUMPDEST PUSH1 0x40 MLOAD PUSH2 0x92 SWAP2 SWAP1 PUSH2 0x632 JUMP JUMPDEST PUSH1 0x40 MLOAD DUP1 SWAP2 SUB SWAP1 RETURN JUMPDEST PUSH1 0x0 PUSH2 0xE5 PUSH1 0x40 MLOAD DUP1 PUSH1 0x40 ADD PUSH1 0x40 MSTORE DUP1 PUSH1 0x1 DUP2 MSTORE PUSH1 0x20 ADD PUSH32 0x7400000000000000000000000000000000000000000000000000000000000000 DUP2 MSTORE POP DUP4 PUSH2 0x13D SWAP1 SWAP2 SWAP1 PUSH4 0xFFFFFFFF AND JUMP JUMPDEST SWAP1 POP SWAP2 SWAP1 POP JUMP JUMPDEST PUSH1 0x60 PUSH2 0x136 PUSH1 0x40 MLOAD DUP1 PUSH1 0x40 ADD PUSH1 0x40 MSTORE DUP1 PUSH1 0x5 DUP2 MSTORE PUSH1 0x20 ADD PUSH32 0x5F74657374000000000000000000000000000000000000000000000000000000 DUP2 MSTORE POP DUP4 PUSH2 0x238 SWAP1 SWAP2 SWAP1 PUSH4 0xFFFFFFFF AND JUMP JUMPDEST SWAP1 POP SWAP2 SWAP1 POP JUMP JUMPDEST PUSH1 0x0 DUP1 DUP4 SWAP1 POP PUSH1 0x0 DUP4 SWAP1 POP PUSH1 0x1 DUP2 MLOAD EQ PUSH2 0x15A JUMPI PUSH2 0x159 PUSH2 0x654 JUMP JUMPDEST JUMPDEST PUSH1 0x0 JUMPDEST DUP3 MLOAD DUP2 LT ISZERO PUSH2 0x20B JUMPI DUP2 PUSH1 0x0 DUP2 MLOAD DUP2 LT PUSH2 0x17A JUMPI PUSH2 0x179 PUSH2 0x683 JUMP JUMPDEST JUMPDEST PUSH1 0x20 ADD ADD MLOAD PUSH1 0xF8 SHR PUSH1 0xF8 SHL PUSH31 0xFFFFFFFFFFFFFFFFFFFFFFFFFFFFFFFFFFFFFFFFFFFFFFFFFFFFFFFFFFFFFF NOT AND DUP4 DUP3 DUP2 MLOAD DUP2 LT PUSH2 0x1BA JUMPI PUSH2 0x1B9 PUSH2 0x683 JUMP JUMPDEST JUMPDEST PUSH1 0x20 ADD ADD MLOAD PUSH1 0xF8 SHR PUSH1 0xF8 SHL PUSH31 0xFFFFFFFFFFFFFFFFFFFFFFFFFFFFFFFFFFFFFFFFFFFFFFFFFFFFFFFFFFFFFF NOT AND EQ ISZERO PUSH2 0x1F8 JUMPI DUP1 SWAP4 POP POP POP POP PUSH2 0x232 JUMP JUMPDEST DUP1 DUP1 PUSH2 0x203 SWAP1 PUSH2 0x6EB JUMP JUMPDEST SWAP2 POP POP PUSH2 0x15D JUMP JUMPDEST POP PUSH32 0xFFFFFFFFFFFFFFFFFFFFFFFFFFFFFFFFFFFFFFFFFFFFFFFFFFFFFFFFFFFFFFFF SWAP3 POP POP POP JUMPDEST SWAP3 SWAP2 POP POP JUMP JUMPDEST PUSH1 0x60 PUSH1 0x0 DUP4 SWAP1 POP PUSH1 0x0 DUP4 SWAP1 POP PUSH1 0x0 DUP2 MLOAD DUP4 MLOAD PUSH2 0x254 SWAP2 SWAP1 PUSH2 0x734 JUMP JUMPDEST PUSH8 0xFFFFFFFFFFFFFFFF DUP2 GT ISZERO PUSH2 0x26D JUMPI PUSH2 0x26C PUSH2 0x402 JUMP JUMPDEST JUMPDEST PUSH1 0x40 MLOAD SWAP1 DUP1 DUP3 MSTORE DUP1 PUSH1 0x1F ADD PUSH1 0x1F NOT AND PUSH1 0x20 ADD DUP3 ADD PUSH1 0x40 MSTORE DUP1 ISZERO PUSH2 0x29F JUMPI DUP2 PUSH1 0x20 ADD PUSH1 0x1 DUP3 MUL DUP1 CALLDATASIZE DUP4 CALLDATACOPY DUP1 DUP3 ADD SWAP2 POP POP SWAP1 POP JUMPDEST POP SWAP1 POP PUSH1 0x0 DUP2 SWAP1 POP PUSH1 0x0 DUP1 PUSH1 0x0 SWAP2 POP JUMPDEST DUP6 MLOAD DUP3 LT ISZERO PUSH2 0x337 JUMPI DUP6 DUP3 DUP2 MLOAD DUP2 LT PUSH2 0x2CB JUMPI PUSH2 0x2CA PUSH2 0x683 JUMP JUMPDEST JUMPDEST PUSH1 0x20 ADD ADD MLOAD PUSH1 0xF8 SHR PUSH1 0xF8 SHL DUP4 DUP3 DUP1 PUSH2 0x2E2 SWAP1 PUSH2 0x6EB JUMP JUMPDEST SWAP4 POP DUP2 MLOAD DUP2 LT PUSH2 0x2F5 JUMPI PUSH2 0x2F4 PUSH2 0x683 JUMP JUMPDEST JUMPDEST PUSH1 0x20 ADD ADD SWAP1 PUSH31 0xFFFFFFFFFFFFFFFFFFFFFFFFFFFFFFFFFFFFFFFFFFFFFFFFFFFFFFFFFFFFFF NOT AND SWAP1 DUP2 PUSH1 0x0 BYTE SWAP1 MSTORE8 POP DUP2 DUP1 PUSH2 0x32F SWAP1 PUSH2 0x6EB JUMP JUMPDEST SWAP3 POP POP PUSH2 0x2AF JUMP JUMPDEST PUSH1 0x0 SWAP2 POP JUMPDEST DUP6 MLOAD DUP3 LT ISZERO PUSH2 0x3C4 JUMPI DUP5 DUP3 DUP2 MLOAD DUP2 LT PUSH2 0x358 JUMPI PUSH2 0x357 PUSH2 0x683 JUMP JUMPDEST JUMPDEST PUSH1 0x20 ADD ADD MLOAD PUSH1 0xF8 SHR PUSH1 0xF8 SHL DUP4 DUP3 DUP1 PUSH2 0x36F SWAP1 PUSH2 0x6EB JUMP JUMPDEST SWAP4 POP DUP2 MLOAD DUP2 LT PUSH2 0x382 JUMPI PUSH2 0x381 PUSH2 0x683 JUMP JUMPDEST JUMPDEST PUSH1 0x20 ADD ADD SWAP1 PUSH31 0xFFFFFFFFFFFFFFFFFFFFFFFFFFFFFFFFFFFFFFFFFFFFFFFFFFFFFFFFFFFFFF NOT AND SWAP1 DUP2 PUSH1 0x0 BYTE SWAP1 MSTORE8 POP DUP2 DUP1 PUSH2 0x3BC SWAP1 PUSH2 0x6EB JUMP JUMPDEST SWAP3 POP POP PUSH2 0x33C JUMP JUMPDEST DUP3 SWAP7 POP POP POP POP POP POP POP SWAP3 SWAP2 POP POP JUMP JUMPDEST PUSH1 0x0 PUSH1 0x40 MLOAD SWAP1 POP SWAP1 JUMP JUMPDEST PUSH1 0x0 DUP1 REVERT JUMPDEST PUSH1 0x0 DUP1 REVERT JUMPDEST PUSH1 0x0 DUP1 REVERT JUMPDEST PUSH1 0x0 DUP1 REVERT JUMPDEST PUSH1 0x0 PUSH1 0x1F NOT PUSH1 0x1F DUP4 ADD AND SWAP1 POP SWAP2 SWAP1 POP JUMP JUMPDEST PUSH32 0x4E487B7100000000000000000000000000000000000000000000000000000000 PUSH1 0x0 MSTORE PUSH1 0x41 PUSH1 0x4 MSTORE PUSH1 0x24 PUSH1 0x0 REVERT JUMPDEST PUSH2 0x43A DUP3 PUSH2 0x3F1 JUMP JUMPDEST DUP2 ADD DUP2 DUP2 LT PUSH8 0xFFFFFFFFFFFFFFFF DUP3 GT OR ISZERO PUSH2 0x459 JUMPI PUSH2 0x458 PUSH2 0x402 JUMP JUMPDEST JUMPDEST DUP1 PUSH1 0x40 MSTORE POP POP POP JUMP JUMPDEST PUSH1 0x0 PUSH2 0x46C PUSH2 0x3D3 JUMP JUMPDEST SWAP1 POP PUSH2 0x478 DUP3 DUP3 PUSH2 0x431 JUMP JUMPDEST SWAP2 SWAP1 POP JUMP JUMPDEST PUSH1 0x0 PUSH8 0xFFFFFFFFFFFFFFFF DUP3 GT ISZERO PUSH2 0x498 JUMPI PUSH2 0x497 PUSH2 0x402 JUMP JUMPDEST JUMPDEST PUSH2 0x4A1 DUP3 PUSH2 0x3F1 JUMP JUMPDEST SWAP1 POP PUSH1 0x20 DUP2 ADD SWAP1 POP SWAP2 SWAP1 POP JUMP JUMPDEST DUP3 DUP2 DUP4 CALLDATACOPY PUSH1 0x0 DUP4 DUP4 ADD MSTORE POP POP POP JUMP JUMPDEST PUSH1 0x0 PUSH2 0x4D0 PUSH2 0x4CB DUP5 PUSH2 0x47D JUMP JUMPDEST PUSH2 0x462 JUMP JUMPDEST SWAP1 POP DUP3 DUP2 MSTORE PUSH1 0x20 DUP2 ADD DUP5 DUP5 DUP5 ADD GT ISZERO PUSH2 0x4EC JUMPI PUSH2 0x4EB PUSH2 0x3EC JUMP JUMPDEST JUMPDEST PUSH2 0x4F7 DUP5 DUP3 DUP6 PUSH2 0x4AE JUMP JUMPDEST POP SWAP4 SWAP3 POP POP POP JUMP JUMPDEST PUSH1 0x0 DUP3 PUSH1 0x1F DUP4 ADD SLT PUSH2 0x514 JUMPI PUSH2 0x513 PUSH2 0x3E7 JUMP JUMPDEST JUMPDEST DUP2 CALLDATALOAD PUSH2 0x524 DUP5 DUP3 PUSH1 0x20 DUP7 ADD PUSH2 0x4BD JUMP JUMPDEST SWAP2 POP POP SWAP3 SWAP2 POP POP JUMP JUMPDEST PUSH1 0x0 PUSH1 0x20 DUP3 DUP5 SUB SLT ISZERO PUSH2 0x543 JUMPI PUSH2 0x542 PUSH2 0x3DD JUMP JUMPDEST JUMPDEST PUSH1 0x0 DUP3 ADD CALLDATALOAD PUSH8 0xFFFFFFFFFFFFFFFF DUP2 GT ISZERO PUSH2 0x561 JUMPI PUSH2 0x560 PUSH2 0x3E2 JUMP JUMPDEST JUMPDEST PUSH2 0x56D DUP5 DUP3 DUP6 ADD PUSH2 0x4FF JUMP JUMPDEST SWAP2 POP POP SWAP3 SWAP2 POP POP JUMP JUMPDEST PUSH1 0x0 DUP2 SWAP1 POP SWAP2 SWAP1 POP JUMP JUMPDEST PUSH2 0x589 DUP2 PUSH2 0x576 JUMP JUMPDEST DUP3 MSTORE POP POP JUMP JUMPDEST PUSH1 0x0 PUSH1 0x20 DUP3 ADD SWAP1 POP PUSH2 0x5A4 PUSH1 0x0 DUP4 ADD DUP5 PUSH2 0x580 JUMP JUMPDEST SWAP3 SWAP2 POP POP JUMP JUMPDEST PUSH1 0x0 DUP2 MLOAD SWAP1 POP SWAP2 SWAP1 POP JUMP JUMPDEST PUSH1 0x0 DUP3 DUP3 MSTORE PUSH1 0x20 DUP3 ADD SWAP1 POP SWAP3 SWAP2 POP POP JUMP JUMPDEST PUSH1 0x0 JUMPDEST DUP4 DUP2 LT ISZERO PUSH2 0x5E4 JUMPI DUP1 DUP3 ADD MLOAD DUP2 DUP5 ADD MSTORE PUSH1 0x20 DUP2 ADD SWAP1 POP PUSH2 0x5C9 JUMP JUMPDEST DUP4 DUP2 GT ISZERO PUSH2 0x5F3 JUMPI PUSH1 0x0 DUP5 DUP5 ADD MSTORE JUMPDEST POP POP POP POP JUMP JUMPDEST PUSH1 0x0 PUSH2 0x604 DUP3 PUSH2 0x5AA JUMP JUMPDEST PUSH2 0x60E DUP2 DUP6 PUSH2 0x5B5 JUMP JUMPDEST SWAP4 POP PUSH2 0x61E DUP2 DUP6 PUSH1 0x20 DUP7 ADD PUSH2 0x5C6 JUMP JUMPDEST PUSH2 0x627 DUP2 PUSH2 0x3F1 JUMP JUMPDEST DUP5 ADD SWAP2 POP POP SWAP3 SWAP2 POP POP JUMP JUMPDEST PUSH1 0x0 PUSH1 0x20 DUP3 ADD SWAP1 POP DUP2 DUP2 SUB PUSH1 0x0 DUP4 ADD MSTORE PUSH2 0x64C DUP2 DUP5 PUSH2 0x5F9 JUMP JUMPDEST SWAP1 POP SWAP3 SWAP2 POP POP JUMP JUMPDEST PUSH32 0x4E487B7100000000000000000000000000000000000000000000000000000000 PUSH1 0x0 MSTORE PUSH1 0x1 PUSH1 0x4 MSTORE PUSH1 0x24 PUSH1 0x0 REVERT JUMPDEST PUSH32 0x4E487B7100000000000000000000000000000000000000000000000000000000 PUSH1 0x0 MSTORE PUSH1 0x32 PUSH1 0x4 MSTORE PUSH1 0x24 PUSH1 0x0 REVERT JUMPDEST PUSH32 0x4E487B7100000000000000000000000000000000000000000000000000000000 PUSH1 0x0 MSTORE PUSH1 0x11 PUSH1 0x4 MSTORE PUSH1 0x24 PUSH1 0x0 REVERT JUMPDEST PUSH1 0x0 DUP2 SWAP1 POP SWAP2 SWAP1 POP JUMP JUMPDEST PUSH1 0x0 PUSH2 0x6F6 DUP3 PUSH2 0x6E1 JUMP JUMPDEST SWAP2 POP PUSH32 0xFFFFFFFFFFFFFFFFFFFFFFFFFFFFFFFFFFFFFFFFFFFFFFFFFFFFFFFFFFFFFFFF DUP3 EQ ISZERO PUSH2 0x729 JUMPI PUSH2 0x728 PUSH2 0x6B2 JUMP JUMPDEST JUMPDEST PUSH1 0x1 DUP3 ADD SWAP1 POP SWAP2 SWAP1 POP JUMP JUMPDEST PUSH1 0x0 PUSH2 0x73F DUP3 PUSH2 0x6E1 JUMP JUMPDEST SWAP2 POP PUSH2 0x74A DUP4 PUSH2 0x6E1 JUMP JUMPDEST SWAP3 POP DUP3 PUSH32 0xFFFFFFFFFFFFFFFFFFFFFFFFFFFFFFFFFFFFFFFFFFFFFFFFFFFFFFFFFFFFFFFF SUB DUP3 GT ISZERO PUSH2 0x77F JUMPI PUSH2 0x77E PUSH2 0x6B2 JUMP JUMPDEST JUMPDEST DUP3 DUP3 ADD SWAP1 POP SWAP3 SWAP2 POP POP JUMP INVALID LOG2 PUSH5 0x6970667358 0x22 SLT KECCAK256 SELFBALANCE 0xBE 0xEE 0xCC 0xEE SMOD 0x24 DUP4 0xA6 ORIGIN 0xC4 PUSH1 0xF3 MOD SWAP2 0xAF 0x21 0xED EXTCODESIZE PUSH9 0x160A646E3D1393AAA7 0x4F EXTCODEHASH SWAP12 PUSH5 0x736F6C6343 STOP ADDMOD EXP STOP CALLER "
		},
		"gasEstimates": {
			"creation": {
				"codeDepositCost": "396800",
				"executionCost": "430",
				"totalCost": "397230"
			},
			"external": {
				"test1(string)": "infinite",
				"test2(string)": "infinite"
			}
		},
		"methodIdentifiers": {
			"test1(string)": "3c459f88",
			"test2(string)": "30e738a7"
		}
	},
	"abi": [
		{
			"inputs": [
				{
					"internalType": "string",
					"name": "_base",
					"type": "string"
				}
			],
			"name": "test1",
			"outputs": [
				{
					"internalType": "string",
					"name": "",
					"type": "string"
				}
			],
			"stateMutability": "pure",
			"type": "function"
		},
		{
			"inputs": [
				{
					"internalType": "string",
					"name": "_base",
					"type": "string"
				}
			],
			"name": "test2",
			"outputs": [
				{
					"internalType": "int256",
					"name": "",
					"type": "int256"
				}
			],
			"stateMutability": "pure",
			"type": "function"
		}
	]
}